{
  "address": "0x5FbDB2315678afecb367f032d93F642f64180aa3",
  "abi": [
    {
      "inputs": [
        {
          "internalType": "uint256",
          "name": "contributionTime",
          "type": "uint256"
        },
        {
          "internalType": "uint256",
          "name": "_voteTime",
          "type": "uint256"
        },
        {
          "internalType": "uint256",
          "name": "_quorum",
          "type": "uint256"
        }
      ],
      "stateMutability": "nonpayable",
      "type": "constructor"
    },
    {
      "inputs": [],
      "name": "admin",
      "outputs": [
        {
          "internalType": "address",
          "name": "",
          "type": "address"
        }
      ],
      "stateMutability": "view",
      "type": "function"
    },
    {
      "inputs": [],
      "name": "availableFunds",
      "outputs": [
        {
          "internalType": "uint256",
          "name": "",
          "type": "uint256"
        }
      ],
      "stateMutability": "view",
      "type": "function"
    },
    {
      "inputs": [],
      "name": "contribute",
      "outputs": [],
      "stateMutability": "payable",
      "type": "function"
    },
    {
      "inputs": [],
      "name": "contributionEnd",
      "outputs": [
        {
          "internalType": "uint256",
          "name": "",
          "type": "uint256"
        }
      ],
      "stateMutability": "view",
      "type": "function"
    },
    {
      "inputs": [
        {
          "internalType": "string",
          "name": "name",
          "type": "string"
        },
        {
          "internalType": "uint256",
          "name": "amount",
          "type": "uint256"
        },
        {
          "internalType": "address payable",
          "name": "recepient",
          "type": "address"
        }
      ],
      "name": "createProposal",
      "outputs": [],
      "stateMutability": "nonpayable",
      "type": "function"
    },
    {
      "inputs": [
        {
          "internalType": "uint256",
          "name": "proposalId",
          "type": "uint256"
        }
      ],
      "name": "executeProposal",
      "outputs": [],
      "stateMutability": "nonpayable",
      "type": "function"
    },
    {
      "inputs": [
        {
          "internalType": "address",
          "name": "",
          "type": "address"
        }
      ],
      "name": "investors",
      "outputs": [
        {
          "internalType": "bool",
          "name": "",
          "type": "bool"
        }
      ],
      "stateMutability": "view",
      "type": "function"
    },
    {
      "inputs": [],
      "name": "nextProposalId",
      "outputs": [
        {
          "internalType": "uint256",
          "name": "",
          "type": "uint256"
        }
      ],
      "stateMutability": "view",
      "type": "function"
    },
    {
      "inputs": [
        {
          "internalType": "uint256",
          "name": "",
          "type": "uint256"
        }
      ],
      "name": "proposals",
      "outputs": [
        {
          "internalType": "uint256",
          "name": "id",
          "type": "uint256"
        },
        {
          "internalType": "string",
          "name": "name",
          "type": "string"
        },
        {
          "internalType": "uint256",
          "name": "amount",
          "type": "uint256"
        },
        {
          "internalType": "address payable",
          "name": "recipient",
          "type": "address"
        },
        {
          "internalType": "uint256",
          "name": "votes",
          "type": "uint256"
        },
        {
          "internalType": "uint256",
          "name": "end",
          "type": "uint256"
        },
        {
          "internalType": "bool",
          "name": "executed",
          "type": "bool"
        }
      ],
      "stateMutability": "view",
      "type": "function"
    },
    {
      "inputs": [],
      "name": "quorum",
      "outputs": [
        {
          "internalType": "uint256",
          "name": "",
          "type": "uint256"
        }
      ],
      "stateMutability": "view",
      "type": "function"
    },
    {
      "inputs": [
        {
          "internalType": "uint256",
          "name": "amount",
          "type": "uint256"
        }
      ],
      "name": "redeemShare",
      "outputs": [],
      "stateMutability": "nonpayable",
      "type": "function"
    },
    {
      "inputs": [
        {
          "internalType": "address",
          "name": "",
          "type": "address"
        }
      ],
      "name": "shares",
      "outputs": [
        {
          "internalType": "uint256",
          "name": "",
          "type": "uint256"
        }
      ],
      "stateMutability": "view",
      "type": "function"
    },
    {
      "inputs": [],
      "name": "totalShares",
      "outputs": [
        {
          "internalType": "uint256",
          "name": "",
          "type": "uint256"
        }
      ],
      "stateMutability": "view",
      "type": "function"
    },
    {
      "inputs": [
        {
          "internalType": "uint256",
          "name": "amount",
          "type": "uint256"
        },
        {
          "internalType": "address",
          "name": "to",
          "type": "address"
        }
      ],
      "name": "transferShare",
      "outputs": [],
      "stateMutability": "nonpayable",
      "type": "function"
    },
    {
      "inputs": [
        {
          "internalType": "uint256",
          "name": "proposalId",
          "type": "uint256"
        }
      ],
      "name": "vote",
      "outputs": [],
      "stateMutability": "nonpayable",
      "type": "function"
    },
    {
      "inputs": [],
      "name": "voteTime",
      "outputs": [
        {
          "internalType": "uint256",
          "name": "",
          "type": "uint256"
        }
      ],
      "stateMutability": "view",
      "type": "function"
    },
    {
      "inputs": [
        {
          "internalType": "address",
          "name": "",
          "type": "address"
        },
        {
          "internalType": "uint256",
          "name": "",
          "type": "uint256"
        }
      ],
      "name": "votes",
      "outputs": [
        {
          "internalType": "bool",
          "name": "",
          "type": "bool"
        }
      ],
      "stateMutability": "view",
      "type": "function"
    },
    {
      "inputs": [
        {
          "internalType": "uint256",
          "name": "amount",
          "type": "uint256"
        },
        {
          "internalType": "address payable",
          "name": "to",
          "type": "address"
        }
      ],
      "name": "withdrawEther",
      "outputs": [],
      "stateMutability": "nonpayable",
      "type": "function"
    },
    {
      "stateMutability": "payable",
      "type": "receive"
    }
  ],
  "transactionHash": "0x19b0c4bca52846c2d8fb6a740e3aedcfe8b13e960b45df9bca73804a7fb59cab",
  "args": [
    "1000",
    "200",
    "55"
  ],
  "numDeployments": 1,
  "solcInputHash": "499dd29847a2be8cb79ddf83af729d96",
  "bytecode": "0x60806040523480156200001157600080fd5b50604051620020ec380380620020ec8339818101604052810190620000379190620000e3565b82426200004591906200016e565b600a81905550816005819055508060068190555033600760006101000a81548173ffffffffffffffffffffffffffffffffffffffff021916908373ffffffffffffffffffffffffffffffffffffffff160217905550505050620001a9565b600080fd5b6000819050919050565b620000bd81620000a8565b8114620000c957600080fd5b50565b600081519050620000dd81620000b2565b92915050565b600080600060608486031215620000ff57620000fe620000a3565b5b60006200010f86828701620000cc565b93505060206200012286828701620000cc565b92505060406200013586828701620000cc565b9150509250925092565b7f4e487b7100000000000000000000000000000000000000000000000000000000600052601160045260246000fd5b60006200017b82620000a8565b91506200018883620000a8565b9250828201905080821115620001a357620001a26200013f565b5b92915050565b611f3380620001b96000396000f3fe60806040526004361061010d5760003560e01c80636f7bc9be11610095578063ce56c45411610064578063ce56c45414610392578063ce7c2ac2146103bb578063d151b516146103f8578063d7bb99ba14610423578063f851a4401461042d5761012c565b80636f7bc9be146102c4578063868643df146103015780639f2524ee1461032a578063bcf93dd6146103675761012c565b80631703a018116100dc5780631703a018146101ef5780632ab09d141461021a5780633a98ef391461024557806346fcff4c146102705780636ac1e01f1461029b5761012c565b80630121b93f14610131578063013cf08b1461015a578063039383e61461019d5780630d61b519146101c65761012c565b3661012c573460096000828254610124919061109e565b925050819055005b600080fd5b34801561013d57600080fd5b5061015860048036038101906101539190611112565b610458565b005b34801561016657600080fd5b50610181600480360381019061017c9190611112565b61061f565b604051610194979695949392919061123a565b60405180910390f35b3480156101a957600080fd5b506101c460048036038101906101bf91906112ee565b610716565b005b3480156101d257600080fd5b506101ed60048036038101906101e89190611112565b61089f565b005b3480156101fb57600080fd5b50610204610a7c565b604051610211919061132e565b60405180910390f35b34801561022657600080fd5b5061022f610a82565b60405161023c919061132e565b60405180910390f35b34801561025157600080fd5b5061025a610a88565b604051610267919061132e565b60405180910390f35b34801561027c57600080fd5b50610285610a8e565b604051610292919061132e565b60405180910390f35b3480156102a757600080fd5b506102c260048036038101906102bd91906114aa565b610a94565b005b3480156102d057600080fd5b506102eb60048036038101906102e69190611519565b610c27565b6040516102f89190611546565b60405180910390f35b34801561030d57600080fd5b5061032860048036038101906103239190611112565b610c47565b005b34801561033657600080fd5b50610351600480360381019061034c9190611561565b610d80565b60405161035e9190611546565b60405180910390f35b34801561037357600080fd5b5061037c610daf565b604051610389919061132e565b60405180910390f35b34801561039e57600080fd5b506103b960048036038101906103b491906115a1565b610db5565b005b3480156103c757600080fd5b506103e260048036038101906103dd9190611519565b610e53565b6040516103ef919061132e565b60405180910390f35b34801561040457600080fd5b5061040d610e6b565b60405161041a919061132e565b60405180910390f35b61042b610e71565b005b34801561043957600080fd5b50610442610f96565b60405161044f91906115f0565b60405180910390f35b6000806000838152602001908152602001600020905060001515600360003373ffffffffffffffffffffffffffffffffffffffff1673ffffffffffffffffffffffffffffffffffffffff168152602001908152602001600020600084815260200190815260200160002060009054906101000a900460ff16151514610512576040517f08c379a00000000000000000000000000000000000000000000000000000000081526004016105099061167d565b60405180910390fd5b80600501544210610558576040517f08c379a000000000000000000000000000000000000000000000000000000000815260040161054f906116e9565b60405180910390fd5b6001600360003373ffffffffffffffffffffffffffffffffffffffff1673ffffffffffffffffffffffffffffffffffffffff168152602001908152602001600020600084815260200190815260200160002060006101000a81548160ff021916908315150217905550600260003373ffffffffffffffffffffffffffffffffffffffff1673ffffffffffffffffffffffffffffffffffffffff16815260200190815260200160002054816004016000828254610614919061109e565b925050819055505050565b600060205280600052604060002060009150905080600001549080600101805461064890611738565b80601f016020809104026020016040519081016040528092919081815260200182805461067490611738565b80156106c15780601f10610696576101008083540402835291602001916106c1565b820191906000526020600020905b8154815290600101906020018083116106a457829003601f168201915b5050505050908060020154908060030160009054906101000a900473ffffffffffffffffffffffffffffffffffffffff16908060040154908060050154908060060160009054906101000a900460ff16905087565b81600260003373ffffffffffffffffffffffffffffffffffffffff1673ffffffffffffffffffffffffffffffffffffffff168152602001908152602001600020541015610798576040517f08c379a000000000000000000000000000000000000000000000000000000000815260040161078f906117b5565b60405180910390fd5b81600260003373ffffffffffffffffffffffffffffffffffffffff1673ffffffffffffffffffffffffffffffffffffffff16815260200190815260200160002060008282546107e791906117d5565b9250508190555081600260008373ffffffffffffffffffffffffffffffffffffffff1673ffffffffffffffffffffffffffffffffffffffff168152602001908152602001600020600082825461083d919061109e565b9250508190555060018060008373ffffffffffffffffffffffffffffffffffffffff1673ffffffffffffffffffffffffffffffffffffffff16815260200190815260200160002060006101000a81548160ff0219169083151502179055505050565b600760009054906101000a900473ffffffffffffffffffffffffffffffffffffffff1673ffffffffffffffffffffffffffffffffffffffff163373ffffffffffffffffffffffffffffffffffffffff161461092f576040517f08c379a000000000000000000000000000000000000000000000000000000000815260040161092690611855565b60405180910390fd5b60008060008381526020019081526020016000209050806005015442101561098c576040517f08c379a0000000000000000000000000000000000000000000000000000000008152600401610983906118e7565b60405180910390fd5b600015158160060160009054906101000a900460ff161515146109e4576040517f08c379a00000000000000000000000000000000000000000000000000000000081526004016109db90611979565b60405180910390fd5b600654606460085483600401546109fb91906119c8565b610a0591906119f9565b1015610a46576040517f08c379a0000000000000000000000000000000000000000000000000000000008152600401610a3d90611aad565b60405180910390fd5b610a7881600201548260030160009054906101000a900473ffffffffffffffffffffffffffffffffffffffff16610fbc565b5050565b60065481565b60045481565b60085481565b60095481565b816009541015610ad9576040517f08c379a0000000000000000000000000000000000000000000000000000000008152600401610ad090611b19565b60405180910390fd5b6040518060e0016040528060045481526020018481526020018381526020018273ffffffffffffffffffffffffffffffffffffffff1681526020016000815260200160055442610b29919061109e565b8152602001600015158152506000806004548152602001908152602001600020600082015181600001556020820151816001019081610b689190611ce5565b506040820151816002015560608201518160030160006101000a81548173ffffffffffffffffffffffffffffffffffffffff021916908373ffffffffffffffffffffffffffffffffffffffff1602179055506080820151816004015560a0820151816005015560c08201518160060160006101000a81548160ff0219169083151502179055509050508160096000828254610c0391906117d5565b9250508190555060046000815480929190610c1d90611db7565b9190505550505050565b60016020528060005260406000206000915054906101000a900460ff1681565b80600260003373ffffffffffffffffffffffffffffffffffffffff1673ffffffffffffffffffffffffffffffffffffffff168152602001908152602001600020541015610cc9576040517f08c379a0000000000000000000000000000000000000000000000000000000008152600401610cc0906117b5565b60405180910390fd5b806009541015610d0e576040517f08c379a0000000000000000000000000000000000000000000000000000000008152600401610d0590611e4b565b60405180910390fd5b80600260003373ffffffffffffffffffffffffffffffffffffffff1673ffffffffffffffffffffffffffffffffffffffff1681526020019081526020016000206000828254610d5d91906117d5565b925050819055508060096000828254610d7691906117d5565b9250508190555050565b60036020528160005260406000206020528060005260406000206000915091509054906101000a900460ff1681565b60055481565b600760009054906101000a900473ffffffffffffffffffffffffffffffffffffffff1673ffffffffffffffffffffffffffffffffffffffff163373ffffffffffffffffffffffffffffffffffffffff1614610e45576040517f08c379a0000000000000000000000000000000000000000000000000000000008152600401610e3c90611855565b60405180910390fd5b610e4f8282610fbc565b5050565b60026020528060005260406000206000915090505481565b600a5481565b600a544210610eb5576040517f08c379a0000000000000000000000000000000000000000000000000000000008152600401610eac90611edd565b60405180910390fd5b60018060003373ffffffffffffffffffffffffffffffffffffffff1673ffffffffffffffffffffffffffffffffffffffff16815260200190815260200160002060006101000a81548160ff02191690831515021790555034600260003373ffffffffffffffffffffffffffffffffffffffff1673ffffffffffffffffffffffffffffffffffffffff1681526020019081526020016000206000828254610f5b919061109e565b925050819055503460086000828254610f74919061109e565b925050819055503460096000828254610f8d919061109e565b92505081905550565b600760009054906101000a900473ffffffffffffffffffffffffffffffffffffffff1681565b600954821115611001576040517f08c379a0000000000000000000000000000000000000000000000000000000008152600401610ff890611e4b565b60405180910390fd5b816009600082825461101391906117d5565b925050819055508073ffffffffffffffffffffffffffffffffffffffff166108fc839081150290604051600060405180830381858888f19350505050158015611060573d6000803e3d6000fd5b505050565b6000819050919050565b7f4e487b7100000000000000000000000000000000000000000000000000000000600052601160045260246000fd5b60006110a982611065565b91506110b483611065565b92508282019050808211156110cc576110cb61106f565b5b92915050565b6000604051905090565b600080fd5b600080fd5b6110ef81611065565b81146110fa57600080fd5b50565b60008135905061110c816110e6565b92915050565b600060208284031215611128576111276110dc565b5b6000611136848285016110fd565b91505092915050565b61114881611065565b82525050565b600081519050919050565b600082825260208201905092915050565b60005b8381101561118857808201518184015260208101905061116d565b60008484015250505050565b6000601f19601f8301169050919050565b60006111b08261114e565b6111ba8185611159565b93506111ca81856020860161116a565b6111d381611194565b840191505092915050565b600073ffffffffffffffffffffffffffffffffffffffff82169050919050565b6000611209826111de565b9050919050565b611219816111fe565b82525050565b60008115159050919050565b6112348161121f565b82525050565b600060e08201905061124f600083018a61113f565b818103602083015261126181896111a5565b9050611270604083018861113f565b61127d6060830187611210565b61128a608083018661113f565b61129760a083018561113f565b6112a460c083018461122b565b98975050505050505050565b60006112bb826111de565b9050919050565b6112cb816112b0565b81146112d657600080fd5b50565b6000813590506112e8816112c2565b92915050565b60008060408385031215611305576113046110dc565b5b6000611313858286016110fd565b9250506020611324858286016112d9565b9150509250929050565b6000602082019050611343600083018461113f565b92915050565b600080fd5b600080fd5b7f4e487b7100000000000000000000000000000000000000000000000000000000600052604160045260246000fd5b61138b82611194565b810181811067ffffffffffffffff821117156113aa576113a9611353565b5b80604052505050565b60006113bd6110d2565b90506113c98282611382565b919050565b600067ffffffffffffffff8211156113e9576113e8611353565b5b6113f282611194565b9050602081019050919050565b82818337600083830152505050565b600061142161141c846113ce565b6113b3565b90508281526020810184848401111561143d5761143c61134e565b5b6114488482856113ff565b509392505050565b600082601f83011261146557611464611349565b5b813561147584826020860161140e565b91505092915050565b611487816111fe565b811461149257600080fd5b50565b6000813590506114a48161147e565b92915050565b6000806000606084860312156114c3576114c26110dc565b5b600084013567ffffffffffffffff8111156114e1576114e06110e1565b5b6114ed86828701611450565b93505060206114fe868287016110fd565b925050604061150f86828701611495565b9150509250925092565b60006020828403121561152f5761152e6110dc565b5b600061153d848285016112d9565b91505092915050565b600060208201905061155b600083018461122b565b92915050565b60008060408385031215611578576115776110dc565b5b6000611586858286016112d9565b9250506020611597858286016110fd565b9150509250929050565b600080604083850312156115b8576115b76110dc565b5b60006115c6858286016110fd565b92505060206115d785828601611495565b9150509250929050565b6115ea816112b0565b82525050565b600060208201905061160560008301846115e1565b92915050565b7f766f746572732063616e206f6e6c7920766f7465206f6e636520666f7220612060008201527f70726f706f73616c000000000000000000000000000000000000000000000000602082015250565b6000611667602883611159565b91506116728261160b565b604082019050919050565b600060208201905081810360008301526116968161165a565b9050919050565b7f63616e206f6e6c7920766f746520756e74696c2070726f706f73616c20656e64600082015250565b60006116d3602083611159565b91506116de8261169d565b602082019050919050565b60006020820190508181036000830152611702816116c6565b9050919050565b7f4e487b7100000000000000000000000000000000000000000000000000000000600052602260045260246000fd5b6000600282049050600182168061175057607f821691505b60208210810361176357611762611709565b5b50919050565b7f6e6f7420656e6f75676820736861726573000000000000000000000000000000600082015250565b600061179f601183611159565b91506117aa82611769565b602082019050919050565b600060208201905081810360008301526117ce81611792565b9050919050565b60006117e082611065565b91506117eb83611065565b92508282039050818111156118035761180261106f565b5b92915050565b7f6f6e6c792061646d696e00000000000000000000000000000000000000000000600082015250565b600061183f600a83611159565b915061184a82611809565b602082019050919050565b6000602082019050818103600083015261186e81611832565b9050919050565b7f63616e206e6f74206578656375746520612070726f706f73616c206265666f7260008201527f6520656e64206461746500000000000000000000000000000000000000000000602082015250565b60006118d1602a83611159565b91506118dc82611875565b604082019050919050565b60006020820190508181036000830152611900816118c4565b9050919050565b7f63616e206e6f7420657865637574656420612070726f706f73616c207468617460008201527f20697320616c7265646179206578656375746564000000000000000000000000602082015250565b6000611963603483611159565b915061196e82611907565b604082019050919050565b6000602082019050818103600083015261199281611956565b9050919050565b7f4e487b7100000000000000000000000000000000000000000000000000000000600052601260045260246000fd5b60006119d382611065565b91506119de83611065565b9250826119ee576119ed611999565b5b828204905092915050565b6000611a0482611065565b9150611a0f83611065565b9250828202611a1d81611065565b91508282048414831517611a3457611a3361106f565b5b5092915050565b7f63616e6e6f7420657865637574656420612070726f706f73616c20776974682060008201527f62656c6f772071756f72756d0000000000000000000000000000000000000000602082015250565b6000611a97602c83611159565b9150611aa282611a3b565b604082019050919050565b60006020820190508181036000830152611ac681611a8a565b9050919050565b7f616d6f756e7420746f6f20626967000000000000000000000000000000000000600082015250565b6000611b03600e83611159565b9150611b0e82611acd565b602082019050919050565b60006020820190508181036000830152611b3281611af6565b9050919050565b60008190508160005260206000209050919050565b60006020601f8301049050919050565b600082821b905092915050565b600060088302611b9b7fffffffffffffffffffffffffffffffffffffffffffffffffffffffffffffffff82611b5e565b611ba58683611b5e565b95508019841693508086168417925050509392505050565b6000819050919050565b6000611be2611bdd611bd884611065565b611bbd565b611065565b9050919050565b6000819050919050565b611bfc83611bc7565b611c10611c0882611be9565b848454611b6b565b825550505050565b600090565b611c25611c18565b611c30818484611bf3565b505050565b5b81811015611c5457611c49600082611c1d565b600181019050611c36565b5050565b601f821115611c9957611c6a81611b39565b611c7384611b4e565b81016020851015611c82578190505b611c96611c8e85611b4e565b830182611c35565b50505b505050565b600082821c905092915050565b6000611cbc60001984600802611c9e565b1980831691505092915050565b6000611cd58383611cab565b9150826002028217905092915050565b611cee8261114e565b67ffffffffffffffff811115611d0757611d06611353565b5b611d118254611738565b611d1c828285611c58565b600060209050601f831160018114611d4f5760008415611d3d578287015190505b611d478582611cc9565b865550611daf565b601f198416611d5d86611b39565b60005b82811015611d8557848901518255600182019150602085019450602081019050611d60565b86831015611da25784890151611d9e601f891682611cab565b8355505b6001600288020188555050505b505050505050565b6000611dc282611065565b91507fffffffffffffffffffffffffffffffffffffffffffffffffffffffffffffffff8203611df457611df361106f565b5b600182019050919050565b7f6e6f7420656e6f75676820617661696c61626c6546756e640000000000000000600082015250565b6000611e35601883611159565b9150611e4082611dff565b602082019050919050565b60006020820190508181036000830152611e6481611e28565b9050919050565b7f63616e6e6f7420636f6e7472696275746520616674657220636f6e746962757460008201527f696f6e456e640000000000000000000000000000000000000000000000000000602082015250565b6000611ec7602683611159565b9150611ed282611e6b565b604082019050919050565b60006020820190508181036000830152611ef681611eba565b905091905056fea264697066735822122024277bddd90548f1dfb3920f3d8ebdc647d6f5009b785d5db70750dca88cf05164736f6c63430008110033",
  "devdoc": {
    "kind": "dev",
    "methods": {},
    "version": 1
  },
  "userdoc": {
    "kind": "user",
    "methods": {},
    "version": 1
  },
  "storageLayout": {
    "storage": [
      {
        "astId": 21,
        "contract": "contracts/DAO.sol:DAO",
        "label": "proposals",
        "offset": 0,
        "slot": "0",
        "type": "t_mapping(t_uint256,t_struct(Proposal)16_storage)"
      },
      {
        "astId": 25,
        "contract": "contracts/DAO.sol:DAO",
        "label": "investors",
        "offset": 0,
        "slot": "1",
        "type": "t_mapping(t_address,t_bool)"
      },
      {
        "astId": 29,
        "contract": "contracts/DAO.sol:DAO",
        "label": "shares",
        "offset": 0,
        "slot": "2",
        "type": "t_mapping(t_address,t_uint256)"
      },
      {
        "astId": 35,
        "contract": "contracts/DAO.sol:DAO",
        "label": "votes",
        "offset": 0,
        "slot": "3",
        "type": "t_mapping(t_address,t_mapping(t_uint256,t_bool))"
      },
      {
        "astId": 37,
        "contract": "contracts/DAO.sol:DAO",
        "label": "nextProposalId",
        "offset": 0,
        "slot": "4",
        "type": "t_uint256"
      },
      {
        "astId": 39,
        "contract": "contracts/DAO.sol:DAO",
        "label": "voteTime",
        "offset": 0,
        "slot": "5",
        "type": "t_uint256"
      },
      {
        "astId": 41,
        "contract": "contracts/DAO.sol:DAO",
        "label": "quorum",
        "offset": 0,
        "slot": "6",
        "type": "t_uint256"
      },
      {
        "astId": 43,
        "contract": "contracts/DAO.sol:DAO",
        "label": "admin",
        "offset": 0,
        "slot": "7",
        "type": "t_address"
      },
      {
        "astId": 45,
        "contract": "contracts/DAO.sol:DAO",
        "label": "totalShares",
        "offset": 0,
        "slot": "8",
        "type": "t_uint256"
      },
      {
        "astId": 47,
        "contract": "contracts/DAO.sol:DAO",
        "label": "availableFunds",
        "offset": 0,
        "slot": "9",
        "type": "t_uint256"
      },
      {
        "astId": 49,
        "contract": "contracts/DAO.sol:DAO",
        "label": "contributionEnd",
        "offset": 0,
        "slot": "10",
        "type": "t_uint256"
      }
    ],
    "types": {
      "t_address": {
        "encoding": "inplace",
        "label": "address",
        "numberOfBytes": "20"
      },
      "t_address_payable": {
        "encoding": "inplace",
        "label": "address payable",
        "numberOfBytes": "20"
      },
      "t_bool": {
        "encoding": "inplace",
        "label": "bool",
        "numberOfBytes": "1"
      },
      "t_mapping(t_address,t_bool)": {
        "encoding": "mapping",
        "key": "t_address",
        "label": "mapping(address => bool)",
        "numberOfBytes": "32",
        "value": "t_bool"
      },
      "t_mapping(t_address,t_mapping(t_uint256,t_bool))": {
        "encoding": "mapping",
        "key": "t_address",
        "label": "mapping(address => mapping(uint256 => bool))",
        "numberOfBytes": "32",
        "value": "t_mapping(t_uint256,t_bool)"
      },
      "t_mapping(t_address,t_uint256)": {
        "encoding": "mapping",
        "key": "t_address",
        "label": "mapping(address => uint256)",
        "numberOfBytes": "32",
        "value": "t_uint256"
      },
      "t_mapping(t_uint256,t_bool)": {
        "encoding": "mapping",
        "key": "t_uint256",
        "label": "mapping(uint256 => bool)",
        "numberOfBytes": "32",
        "value": "t_bool"
      },
      "t_mapping(t_uint256,t_struct(Proposal)16_storage)": {
        "encoding": "mapping",
        "key": "t_uint256",
        "label": "mapping(uint256 => struct DAO.Proposal)",
        "numberOfBytes": "32",
        "value": "t_struct(Proposal)16_storage"
      },
      "t_string_storage": {
        "encoding": "bytes",
        "label": "string",
        "numberOfBytes": "32"
      },
      "t_struct(Proposal)16_storage": {
        "encoding": "inplace",
        "label": "struct DAO.Proposal",
        "members": [
          {
            "astId": 3,
            "contract": "contracts/DAO.sol:DAO",
            "label": "id",
            "offset": 0,
            "slot": "0",
            "type": "t_uint256"
          },
          {
            "astId": 5,
            "contract": "contracts/DAO.sol:DAO",
            "label": "name",
            "offset": 0,
            "slot": "1",
            "type": "t_string_storage"
          },
          {
            "astId": 7,
            "contract": "contracts/DAO.sol:DAO",
            "label": "amount",
            "offset": 0,
            "slot": "2",
            "type": "t_uint256"
          },
          {
            "astId": 9,
            "contract": "contracts/DAO.sol:DAO",
            "label": "recipient",
            "offset": 0,
            "slot": "3",
            "type": "t_address_payable"
          },
          {
            "astId": 11,
            "contract": "contracts/DAO.sol:DAO",
            "label": "votes",
            "offset": 0,
            "slot": "4",
            "type": "t_uint256"
          },
          {
            "astId": 13,
            "contract": "contracts/DAO.sol:DAO",
            "label": "end",
            "offset": 0,
            "slot": "5",
            "type": "t_uint256"
          },
          {
            "astId": 15,
            "contract": "contracts/DAO.sol:DAO",
            "label": "executed",
            "offset": 0,
            "slot": "6",
            "type": "t_bool"
          }
        ],
        "numberOfBytes": "224"
      },
      "t_uint256": {
        "encoding": "inplace",
        "label": "uint256",
        "numberOfBytes": "32"
      }
    }
  }
}