{
  "address": "0xB739b6B346Cd050ef63668F4b58D5689ec500d64",
  "abi": [
    {
      "inputs": [
        {
          "internalType": "uint256",
          "name": "contributionTime",
          "type": "uint256"
        },
        {
          "internalType": "uint256",
          "name": "_voteTime",
          "type": "uint256"
        },
        {
          "internalType": "uint256",
          "name": "_quorum",
          "type": "uint256"
        }
      ],
      "stateMutability": "nonpayable",
      "type": "constructor"
    },
    {
      "inputs": [],
      "name": "admin",
      "outputs": [
        {
          "internalType": "address",
          "name": "",
          "type": "address"
        }
      ],
      "stateMutability": "view",
      "type": "function"
    },
    {
      "inputs": [],
      "name": "availableFunds",
      "outputs": [
        {
          "internalType": "uint256",
          "name": "",
          "type": "uint256"
        }
      ],
      "stateMutability": "view",
      "type": "function"
    },
    {
      "inputs": [],
      "name": "contribute",
      "outputs": [],
      "stateMutability": "payable",
      "type": "function"
    },
    {
      "inputs": [],
      "name": "contributionEnd",
      "outputs": [
        {
          "internalType": "uint256",
          "name": "",
          "type": "uint256"
        }
      ],
      "stateMutability": "view",
      "type": "function"
    },
    {
      "inputs": [
        {
          "internalType": "string",
          "name": "name",
          "type": "string"
        },
        {
          "internalType": "uint256",
          "name": "amount",
          "type": "uint256"
        },
        {
          "internalType": "address payable",
          "name": "recepient",
          "type": "address"
        }
      ],
      "name": "createProposal",
      "outputs": [],
      "stateMutability": "nonpayable",
      "type": "function"
    },
    {
      "inputs": [
        {
          "internalType": "uint256",
          "name": "proposalId",
          "type": "uint256"
        }
      ],
      "name": "executeProposal",
      "outputs": [],
      "stateMutability": "nonpayable",
      "type": "function"
    },
    {
      "inputs": [
        {
          "internalType": "address",
          "name": "",
          "type": "address"
        }
      ],
      "name": "investors",
      "outputs": [
        {
          "internalType": "bool",
          "name": "",
          "type": "bool"
        }
      ],
      "stateMutability": "view",
      "type": "function"
    },
    {
      "inputs": [],
      "name": "nextProposalId",
      "outputs": [
        {
          "internalType": "uint256",
          "name": "",
          "type": "uint256"
        }
      ],
      "stateMutability": "view",
      "type": "function"
    },
    {
      "inputs": [
        {
          "internalType": "uint256",
          "name": "",
          "type": "uint256"
        }
      ],
      "name": "proposals",
      "outputs": [
        {
          "internalType": "uint256",
          "name": "id",
          "type": "uint256"
        },
        {
          "internalType": "string",
          "name": "name",
          "type": "string"
        },
        {
          "internalType": "uint256",
          "name": "amount",
          "type": "uint256"
        },
        {
          "internalType": "address payable",
          "name": "recipient",
          "type": "address"
        },
        {
          "internalType": "uint256",
          "name": "votes",
          "type": "uint256"
        },
        {
          "internalType": "uint256",
          "name": "end",
          "type": "uint256"
        },
        {
          "internalType": "bool",
          "name": "executed",
          "type": "bool"
        }
      ],
      "stateMutability": "view",
      "type": "function"
    },
    {
      "inputs": [],
      "name": "quorum",
      "outputs": [
        {
          "internalType": "uint256",
          "name": "",
          "type": "uint256"
        }
      ],
      "stateMutability": "view",
      "type": "function"
    },
    {
      "inputs": [
        {
          "internalType": "uint256",
          "name": "amount",
          "type": "uint256"
        }
      ],
      "name": "redeemShare",
      "outputs": [],
      "stateMutability": "nonpayable",
      "type": "function"
    },
    {
      "inputs": [
        {
          "internalType": "address",
          "name": "",
          "type": "address"
        }
      ],
      "name": "shares",
      "outputs": [
        {
          "internalType": "uint256",
          "name": "",
          "type": "uint256"
        }
      ],
      "stateMutability": "view",
      "type": "function"
    },
    {
      "inputs": [],
      "name": "totalShares",
      "outputs": [
        {
          "internalType": "uint256",
          "name": "",
          "type": "uint256"
        }
      ],
      "stateMutability": "view",
      "type": "function"
    },
    {
      "inputs": [
        {
          "internalType": "uint256",
          "name": "amount",
          "type": "uint256"
        },
        {
          "internalType": "address",
          "name": "to",
          "type": "address"
        }
      ],
      "name": "transferShare",
      "outputs": [],
      "stateMutability": "nonpayable",
      "type": "function"
    },
    {
      "inputs": [
        {
          "internalType": "uint256",
          "name": "proposalId",
          "type": "uint256"
        }
      ],
      "name": "vote",
      "outputs": [],
      "stateMutability": "nonpayable",
      "type": "function"
    },
    {
      "inputs": [],
      "name": "voteTime",
      "outputs": [
        {
          "internalType": "uint256",
          "name": "",
          "type": "uint256"
        }
      ],
      "stateMutability": "view",
      "type": "function"
    },
    {
      "inputs": [
        {
          "internalType": "address",
          "name": "",
          "type": "address"
        },
        {
          "internalType": "uint256",
          "name": "",
          "type": "uint256"
        }
      ],
      "name": "votes",
      "outputs": [
        {
          "internalType": "bool",
          "name": "",
          "type": "bool"
        }
      ],
      "stateMutability": "view",
      "type": "function"
    },
    {
      "inputs": [
        {
          "internalType": "uint256",
          "name": "amount",
          "type": "uint256"
        },
        {
          "internalType": "address payable",
          "name": "to",
          "type": "address"
        }
      ],
      "name": "withdrawEther",
      "outputs": [],
      "stateMutability": "nonpayable",
      "type": "function"
    },
    {
      "stateMutability": "payable",
      "type": "receive"
    }
  ],
  "transactionHash": "0x231e439ad748f1019c3efdb6d6b28462573de86028dc6be27e64198bee75dc34",
  "args": [
    "1000",
    "200",
    "55"
  ],
  "numDeployments": 1,
  "solcInputHash": "32b032a64ce6ece48fc68851de0b5ef7",
  "bytecode": "0x60806040523480156200001157600080fd5b506040516200205c3803806200205c8339818101604052810190620000379190620000e3565b82426200004591906200016e565b600a81905550816005819055508060068190555033600760006101000a81548173ffffffffffffffffffffffffffffffffffffffff021916908373ffffffffffffffffffffffffffffffffffffffff160217905550505050620001a9565b600080fd5b6000819050919050565b620000bd81620000a8565b8114620000c957600080fd5b50565b600081519050620000dd81620000b2565b92915050565b600080600060608486031215620000ff57620000fe620000a3565b5b60006200010f86828701620000cc565b93505060206200012286828701620000cc565b92505060406200013586828701620000cc565b9150509250925092565b7f4e487b7100000000000000000000000000000000000000000000000000000000600052601160045260246000fd5b60006200017b82620000a8565b91506200018883620000a8565b9250828201905080821115620001a357620001a26200013f565b5b92915050565b611ea380620001b96000396000f3fe60806040526004361061010d5760003560e01c80636f7bc9be11610095578063ce56c45411610064578063ce56c45414610392578063ce7c2ac2146103bb578063d151b516146103f8578063d7bb99ba14610423578063f851a4401461042d5761012c565b80636f7bc9be146102c4578063868643df146103015780639f2524ee1461032a578063bcf93dd6146103675761012c565b80631703a018116100dc5780631703a018146101ef5780632ab09d141461021a5780633a98ef391461024557806346fcff4c146102705780636ac1e01f1461029b5761012c565b80630121b93f14610131578063013cf08b1461015a578063039383e61461019d5780630d61b519146101c65761012c565b3661012c573460096000828254610124919061100e565b925050819055005b600080fd5b34801561013d57600080fd5b5061015860048036038101906101539190611082565b610458565b005b34801561016657600080fd5b50610181600480360381019061017c9190611082565b61061f565b60405161019497969594939291906111aa565b60405180910390f35b3480156101a957600080fd5b506101c460048036038101906101bf919061125e565b610716565b005b3480156101d257600080fd5b506101ed60048036038101906101e89190611082565b61089f565b005b3480156101fb57600080fd5b506102046109ec565b604051610211919061129e565b60405180910390f35b34801561022657600080fd5b5061022f6109f2565b60405161023c919061129e565b60405180910390f35b34801561025157600080fd5b5061025a6109f8565b604051610267919061129e565b60405180910390f35b34801561027c57600080fd5b506102856109fe565b604051610292919061129e565b60405180910390f35b3480156102a757600080fd5b506102c260048036038101906102bd919061141a565b610a04565b005b3480156102d057600080fd5b506102eb60048036038101906102e69190611489565b610b97565b6040516102f891906114b6565b60405180910390f35b34801561030d57600080fd5b5061032860048036038101906103239190611082565b610bb7565b005b34801561033657600080fd5b50610351600480360381019061034c91906114d1565b610cf0565b60405161035e91906114b6565b60405180910390f35b34801561037357600080fd5b5061037c610d1f565b604051610389919061129e565b60405180910390f35b34801561039e57600080fd5b506103b960048036038101906103b49190611511565b610d25565b005b3480156103c757600080fd5b506103e260048036038101906103dd9190611489565b610dc3565b6040516103ef919061129e565b60405180910390f35b34801561040457600080fd5b5061040d610ddb565b60405161041a919061129e565b60405180910390f35b61042b610de1565b005b34801561043957600080fd5b50610442610f06565b60405161044f9190611560565b60405180910390f35b6000806000838152602001908152602001600020905060001515600360003373ffffffffffffffffffffffffffffffffffffffff1673ffffffffffffffffffffffffffffffffffffffff168152602001908152602001600020600084815260200190815260200160002060009054906101000a900460ff16151514610512576040517f08c379a0000000000000000000000000000000000000000000000000000000008152600401610509906115ed565b60405180910390fd5b80600501544210610558576040517f08c379a000000000000000000000000000000000000000000000000000000000815260040161054f90611659565b60405180910390fd5b6001600360003373ffffffffffffffffffffffffffffffffffffffff1673ffffffffffffffffffffffffffffffffffffffff168152602001908152602001600020600084815260200190815260200160002060006101000a81548160ff021916908315150217905550600260003373ffffffffffffffffffffffffffffffffffffffff1673ffffffffffffffffffffffffffffffffffffffff16815260200190815260200160002054816004016000828254610614919061100e565b925050819055505050565b6000602052806000526040600020600091509050806000015490806001018054610648906116a8565b80601f0160208091040260200160405190810160405280929190818152602001828054610674906116a8565b80156106c15780601f10610696576101008083540402835291602001916106c1565b820191906000526020600020905b8154815290600101906020018083116106a457829003601f168201915b5050505050908060020154908060030160009054906101000a900473ffffffffffffffffffffffffffffffffffffffff16908060040154908060050154908060060160009054906101000a900460ff16905087565b81600260003373ffffffffffffffffffffffffffffffffffffffff1673ffffffffffffffffffffffffffffffffffffffff168152602001908152602001600020541015610798576040517f08c379a000000000000000000000000000000000000000000000000000000000815260040161078f90611725565b60405180910390fd5b81600260003373ffffffffffffffffffffffffffffffffffffffff1673ffffffffffffffffffffffffffffffffffffffff16815260200190815260200160002060008282546107e79190611745565b9250508190555081600260008373ffffffffffffffffffffffffffffffffffffffff1673ffffffffffffffffffffffffffffffffffffffff168152602001908152602001600020600082825461083d919061100e565b9250508190555060018060008373ffffffffffffffffffffffffffffffffffffffff1673ffffffffffffffffffffffffffffffffffffffff16815260200190815260200160002060006101000a81548160ff0219169083151502179055505050565b6000806000838152602001908152602001600020905080600501544210156108fc576040517f08c379a00000000000000000000000000000000000000000000000000000000081526004016108f3906117eb565b60405180910390fd5b600015158160060160009054906101000a900460ff16151514610954576040517f08c379a000000000000000000000000000000000000000000000000000000000815260040161094b9061187d565b60405180910390fd5b6006546064600854836004015461096b91906118cc565b61097591906118fd565b10156109b6576040517f08c379a00000000000000000000000000000000000000000000000000000000081526004016109ad906119b1565b60405180910390fd5b6109e881600201548260030160009054906101000a900473ffffffffffffffffffffffffffffffffffffffff16610f2c565b5050565b60065481565b60045481565b60085481565b60095481565b816009541015610a49576040517f08c379a0000000000000000000000000000000000000000000000000000000008152600401610a4090611a1d565b60405180910390fd5b6040518060e0016040528060045481526020018481526020018381526020018273ffffffffffffffffffffffffffffffffffffffff1681526020016000815260200160055442610a99919061100e565b8152602001600015158152506000806004548152602001908152602001600020600082015181600001556020820151816001019081610ad89190611be9565b506040820151816002015560608201518160030160006101000a81548173ffffffffffffffffffffffffffffffffffffffff021916908373ffffffffffffffffffffffffffffffffffffffff1602179055506080820151816004015560a0820151816005015560c08201518160060160006101000a81548160ff0219169083151502179055509050508160096000828254610b739190611745565b9250508190555060046000815480929190610b8d90611cbb565b9190505550505050565b60016020528060005260406000206000915054906101000a900460ff1681565b80600260003373ffffffffffffffffffffffffffffffffffffffff1673ffffffffffffffffffffffffffffffffffffffff168152602001908152602001600020541015610c39576040517f08c379a0000000000000000000000000000000000000000000000000000000008152600401610c3090611725565b60405180910390fd5b806009541015610c7e576040517f08c379a0000000000000000000000000000000000000000000000000000000008152600401610c7590611d4f565b60405180910390fd5b80600260003373ffffffffffffffffffffffffffffffffffffffff1673ffffffffffffffffffffffffffffffffffffffff1681526020019081526020016000206000828254610ccd9190611745565b925050819055508060096000828254610ce69190611745565b9250508190555050565b60036020528160005260406000206020528060005260406000206000915091509054906101000a900460ff1681565b60055481565b600760009054906101000a900473ffffffffffffffffffffffffffffffffffffffff1673ffffffffffffffffffffffffffffffffffffffff163373ffffffffffffffffffffffffffffffffffffffff1614610db5576040517f08c379a0000000000000000000000000000000000000000000000000000000008152600401610dac90611dbb565b60405180910390fd5b610dbf8282610f2c565b5050565b60026020528060005260406000206000915090505481565b600a5481565b600a544210610e25576040517f08c379a0000000000000000000000000000000000000000000000000000000008152600401610e1c90611e4d565b60405180910390fd5b60018060003373ffffffffffffffffffffffffffffffffffffffff1673ffffffffffffffffffffffffffffffffffffffff16815260200190815260200160002060006101000a81548160ff02191690831515021790555034600260003373ffffffffffffffffffffffffffffffffffffffff1673ffffffffffffffffffffffffffffffffffffffff1681526020019081526020016000206000828254610ecb919061100e565b925050819055503460086000828254610ee4919061100e565b925050819055503460096000828254610efd919061100e565b92505081905550565b600760009054906101000a900473ffffffffffffffffffffffffffffffffffffffff1681565b600954821115610f71576040517f08c379a0000000000000000000000000000000000000000000000000000000008152600401610f6890611d4f565b60405180910390fd5b8160096000828254610f839190611745565b925050819055508073ffffffffffffffffffffffffffffffffffffffff166108fc839081150290604051600060405180830381858888f19350505050158015610fd0573d6000803e3d6000fd5b505050565b6000819050919050565b7f4e487b7100000000000000000000000000000000000000000000000000000000600052601160045260246000fd5b600061101982610fd5565b915061102483610fd5565b925082820190508082111561103c5761103b610fdf565b5b92915050565b6000604051905090565b600080fd5b600080fd5b61105f81610fd5565b811461106a57600080fd5b50565b60008135905061107c81611056565b92915050565b6000602082840312156110985761109761104c565b5b60006110a68482850161106d565b91505092915050565b6110b881610fd5565b82525050565b600081519050919050565b600082825260208201905092915050565b60005b838110156110f85780820151818401526020810190506110dd565b60008484015250505050565b6000601f19601f8301169050919050565b6000611120826110be565b61112a81856110c9565b935061113a8185602086016110da565b61114381611104565b840191505092915050565b600073ffffffffffffffffffffffffffffffffffffffff82169050919050565b60006111798261114e565b9050919050565b6111898161116e565b82525050565b60008115159050919050565b6111a48161118f565b82525050565b600060e0820190506111bf600083018a6110af565b81810360208301526111d18189611115565b90506111e060408301886110af565b6111ed6060830187611180565b6111fa60808301866110af565b61120760a08301856110af565b61121460c083018461119b565b98975050505050505050565b600061122b8261114e565b9050919050565b61123b81611220565b811461124657600080fd5b50565b60008135905061125881611232565b92915050565b600080604083850312156112755761127461104c565b5b60006112838582860161106d565b925050602061129485828601611249565b9150509250929050565b60006020820190506112b360008301846110af565b92915050565b600080fd5b600080fd5b7f4e487b7100000000000000000000000000000000000000000000000000000000600052604160045260246000fd5b6112fb82611104565b810181811067ffffffffffffffff8211171561131a576113196112c3565b5b80604052505050565b600061132d611042565b905061133982826112f2565b919050565b600067ffffffffffffffff821115611359576113586112c3565b5b61136282611104565b9050602081019050919050565b82818337600083830152505050565b600061139161138c8461133e565b611323565b9050828152602081018484840111156113ad576113ac6112be565b5b6113b884828561136f565b509392505050565b600082601f8301126113d5576113d46112b9565b5b81356113e584826020860161137e565b91505092915050565b6113f78161116e565b811461140257600080fd5b50565b600081359050611414816113ee565b92915050565b6000806000606084860312156114335761143261104c565b5b600084013567ffffffffffffffff81111561145157611450611051565b5b61145d868287016113c0565b935050602061146e8682870161106d565b925050604061147f86828701611405565b9150509250925092565b60006020828403121561149f5761149e61104c565b5b60006114ad84828501611249565b91505092915050565b60006020820190506114cb600083018461119b565b92915050565b600080604083850312156114e8576114e761104c565b5b60006114f685828601611249565b92505060206115078582860161106d565b9150509250929050565b600080604083850312156115285761152761104c565b5b60006115368582860161106d565b925050602061154785828601611405565b9150509250929050565b61155a81611220565b82525050565b60006020820190506115756000830184611551565b92915050565b7f766f746572732063616e206f6e6c7920766f7465206f6e636520666f7220612060008201527f70726f706f73616c000000000000000000000000000000000000000000000000602082015250565b60006115d76028836110c9565b91506115e28261157b565b604082019050919050565b60006020820190508181036000830152611606816115ca565b9050919050565b7f63616e206f6e6c7920766f746520756e74696c2070726f706f73616c20656e64600082015250565b60006116436020836110c9565b915061164e8261160d565b602082019050919050565b6000602082019050818103600083015261167281611636565b9050919050565b7f4e487b7100000000000000000000000000000000000000000000000000000000600052602260045260246000fd5b600060028204905060018216806116c057607f821691505b6020821081036116d3576116d2611679565b5b50919050565b7f6e6f7420656e6f75676820736861726573000000000000000000000000000000600082015250565b600061170f6011836110c9565b915061171a826116d9565b602082019050919050565b6000602082019050818103600083015261173e81611702565b9050919050565b600061175082610fd5565b915061175b83610fd5565b925082820390508181111561177357611772610fdf565b5b92915050565b7f63616e206e6f74206578656375746520612070726f706f73616c206265666f7260008201527f6520656e64206461746500000000000000000000000000000000000000000000602082015250565b60006117d5602a836110c9565b91506117e082611779565b604082019050919050565b60006020820190508181036000830152611804816117c8565b9050919050565b7f63616e206e6f7420657865637574656420612070726f706f73616c207468617460008201527f20697320616c7265646179206578656375746564000000000000000000000000602082015250565b60006118676034836110c9565b91506118728261180b565b604082019050919050565b600060208201905081810360008301526118968161185a565b9050919050565b7f4e487b7100000000000000000000000000000000000000000000000000000000600052601260045260246000fd5b60006118d782610fd5565b91506118e283610fd5565b9250826118f2576118f161189d565b5b828204905092915050565b600061190882610fd5565b915061191383610fd5565b925082820261192181610fd5565b9150828204841483151761193857611937610fdf565b5b5092915050565b7f63616e6e6f7420657865637574656420612070726f706f73616c20776974682060008201527f62656c6f772071756f72756d0000000000000000000000000000000000000000602082015250565b600061199b602c836110c9565b91506119a68261193f565b604082019050919050565b600060208201905081810360008301526119ca8161198e565b9050919050565b7f616d6f756e7420746f6f20626967000000000000000000000000000000000000600082015250565b6000611a07600e836110c9565b9150611a12826119d1565b602082019050919050565b60006020820190508181036000830152611a36816119fa565b9050919050565b60008190508160005260206000209050919050565b60006020601f8301049050919050565b600082821b905092915050565b600060088302611a9f7fffffffffffffffffffffffffffffffffffffffffffffffffffffffffffffffff82611a62565b611aa98683611a62565b95508019841693508086168417925050509392505050565b6000819050919050565b6000611ae6611ae1611adc84610fd5565b611ac1565b610fd5565b9050919050565b6000819050919050565b611b0083611acb565b611b14611b0c82611aed565b848454611a6f565b825550505050565b600090565b611b29611b1c565b611b34818484611af7565b505050565b5b81811015611b5857611b4d600082611b21565b600181019050611b3a565b5050565b601f821115611b9d57611b6e81611a3d565b611b7784611a52565b81016020851015611b86578190505b611b9a611b9285611a52565b830182611b39565b50505b505050565b600082821c905092915050565b6000611bc060001984600802611ba2565b1980831691505092915050565b6000611bd98383611baf565b9150826002028217905092915050565b611bf2826110be565b67ffffffffffffffff811115611c0b57611c0a6112c3565b5b611c1582546116a8565b611c20828285611b5c565b600060209050601f831160018114611c535760008415611c41578287015190505b611c4b8582611bcd565b865550611cb3565b601f198416611c6186611a3d565b60005b82811015611c8957848901518255600182019150602085019450602081019050611c64565b86831015611ca65784890151611ca2601f891682611baf565b8355505b6001600288020188555050505b505050505050565b6000611cc682610fd5565b91507fffffffffffffffffffffffffffffffffffffffffffffffffffffffffffffffff8203611cf857611cf7610fdf565b5b600182019050919050565b7f6e6f7420656e6f75676820617661696c61626c6546756e640000000000000000600082015250565b6000611d396018836110c9565b9150611d4482611d03565b602082019050919050565b60006020820190508181036000830152611d6881611d2c565b9050919050565b7f6f6e6c792061646d696e00000000000000000000000000000000000000000000600082015250565b6000611da5600a836110c9565b9150611db082611d6f565b602082019050919050565b60006020820190508181036000830152611dd481611d98565b9050919050565b7f63616e6e6f7420636f6e7472696275746520616674657220636f6e746962757460008201527f696f6e456e640000000000000000000000000000000000000000000000000000602082015250565b6000611e376026836110c9565b9150611e4282611ddb565b604082019050919050565b60006020820190508181036000830152611e6681611e2a565b905091905056fea2646970667358221220db103cc9f1b0682ebb6b88974a3a1675b3ebfdf8fe3cfc7faa5f02f3bcdddea164736f6c63430008110033",
  "devdoc": {
    "kind": "dev",
    "methods": {},
    "version": 1
  },
  "userdoc": {
    "kind": "user",
    "methods": {},
    "version": 1
  },
  "storageLayout": {
    "storage": [
      {
        "astId": 21,
        "contract": "contracts/DAO.sol:DAO",
        "label": "proposals",
        "offset": 0,
        "slot": "0",
        "type": "t_mapping(t_uint256,t_struct(Proposal)16_storage)"
      },
      {
        "astId": 25,
        "contract": "contracts/DAO.sol:DAO",
        "label": "investors",
        "offset": 0,
        "slot": "1",
        "type": "t_mapping(t_address,t_bool)"
      },
      {
        "astId": 29,
        "contract": "contracts/DAO.sol:DAO",
        "label": "shares",
        "offset": 0,
        "slot": "2",
        "type": "t_mapping(t_address,t_uint256)"
      },
      {
        "astId": 35,
        "contract": "contracts/DAO.sol:DAO",
        "label": "votes",
        "offset": 0,
        "slot": "3",
        "type": "t_mapping(t_address,t_mapping(t_uint256,t_bool))"
      },
      {
        "astId": 37,
        "contract": "contracts/DAO.sol:DAO",
        "label": "nextProposalId",
        "offset": 0,
        "slot": "4",
        "type": "t_uint256"
      },
      {
        "astId": 39,
        "contract": "contracts/DAO.sol:DAO",
        "label": "voteTime",
        "offset": 0,
        "slot": "5",
        "type": "t_uint256"
      },
      {
        "astId": 41,
        "contract": "contracts/DAO.sol:DAO",
        "label": "quorum",
        "offset": 0,
        "slot": "6",
        "type": "t_uint256"
      },
      {
        "astId": 43,
        "contract": "contracts/DAO.sol:DAO",
        "label": "admin",
        "offset": 0,
        "slot": "7",
        "type": "t_address"
      },
      {
        "astId": 45,
        "contract": "contracts/DAO.sol:DAO",
        "label": "totalShares",
        "offset": 0,
        "slot": "8",
        "type": "t_uint256"
      },
      {
        "astId": 47,
        "contract": "contracts/DAO.sol:DAO",
        "label": "availableFunds",
        "offset": 0,
        "slot": "9",
        "type": "t_uint256"
      },
      {
        "astId": 49,
        "contract": "contracts/DAO.sol:DAO",
        "label": "contributionEnd",
        "offset": 0,
        "slot": "10",
        "type": "t_uint256"
      }
    ],
    "types": {
      "t_address": {
        "encoding": "inplace",
        "label": "address",
        "numberOfBytes": "20"
      },
      "t_address_payable": {
        "encoding": "inplace",
        "label": "address payable",
        "numberOfBytes": "20"
      },
      "t_bool": {
        "encoding": "inplace",
        "label": "bool",
        "numberOfBytes": "1"
      },
      "t_mapping(t_address,t_bool)": {
        "encoding": "mapping",
        "key": "t_address",
        "label": "mapping(address => bool)",
        "numberOfBytes": "32",
        "value": "t_bool"
      },
      "t_mapping(t_address,t_mapping(t_uint256,t_bool))": {
        "encoding": "mapping",
        "key": "t_address",
        "label": "mapping(address => mapping(uint256 => bool))",
        "numberOfBytes": "32",
        "value": "t_mapping(t_uint256,t_bool)"
      },
      "t_mapping(t_address,t_uint256)": {
        "encoding": "mapping",
        "key": "t_address",
        "label": "mapping(address => uint256)",
        "numberOfBytes": "32",
        "value": "t_uint256"
      },
      "t_mapping(t_uint256,t_bool)": {
        "encoding": "mapping",
        "key": "t_uint256",
        "label": "mapping(uint256 => bool)",
        "numberOfBytes": "32",
        "value": "t_bool"
      },
      "t_mapping(t_uint256,t_struct(Proposal)16_storage)": {
        "encoding": "mapping",
        "key": "t_uint256",
        "label": "mapping(uint256 => struct DAO.Proposal)",
        "numberOfBytes": "32",
        "value": "t_struct(Proposal)16_storage"
      },
      "t_string_storage": {
        "encoding": "bytes",
        "label": "string",
        "numberOfBytes": "32"
      },
      "t_struct(Proposal)16_storage": {
        "encoding": "inplace",
        "label": "struct DAO.Proposal",
        "members": [
          {
            "astId": 3,
            "contract": "contracts/DAO.sol:DAO",
            "label": "id",
            "offset": 0,
            "slot": "0",
            "type": "t_uint256"
          },
          {
            "astId": 5,
            "contract": "contracts/DAO.sol:DAO",
            "label": "name",
            "offset": 0,
            "slot": "1",
            "type": "t_string_storage"
          },
          {
            "astId": 7,
            "contract": "contracts/DAO.sol:DAO",
            "label": "amount",
            "offset": 0,
            "slot": "2",
            "type": "t_uint256"
          },
          {
            "astId": 9,
            "contract": "contracts/DAO.sol:DAO",
            "label": "recipient",
            "offset": 0,
            "slot": "3",
            "type": "t_address_payable"
          },
          {
            "astId": 11,
            "contract": "contracts/DAO.sol:DAO",
            "label": "votes",
            "offset": 0,
            "slot": "4",
            "type": "t_uint256"
          },
          {
            "astId": 13,
            "contract": "contracts/DAO.sol:DAO",
            "label": "end",
            "offset": 0,
            "slot": "5",
            "type": "t_uint256"
          },
          {
            "astId": 15,
            "contract": "contracts/DAO.sol:DAO",
            "label": "executed",
            "offset": 0,
            "slot": "6",
            "type": "t_bool"
          }
        ],
        "numberOfBytes": "224"
      },
      "t_uint256": {
        "encoding": "inplace",
        "label": "uint256",
        "numberOfBytes": "32"
      }
    }
  }
}